{
    "_format": "hh-sol-artifact-1",
    "contractName": "Decimoon",
    "sourceName": "contracts/Decimoon.sol",
    "abi": [
        {
            "inputs": [],
            "stateMutability": "nonpayable",
            "type": "constructor"
        },
        {
            "inputs": [
                {
                    "internalType": "address",
                    "name": "target",
                    "type": "address"
                }
            ],
            "name": "AddressEmptyCode",
            "type": "error"
        },
        {
            "inputs": [],
            "name": "AlreadyCancelled",
            "type": "error"
        },
        {
            "inputs": [],
            "name": "AlreadyDisputed",
            "type": "error"
        },
        {
            "inputs": [],
            "name": "AlreadyPaid",
            "type": "error"
        },
        {
            "inputs": [
                {
                    "internalType": "address",
                    "name": "implementation",
                    "type": "address"
                }
            ],
            "name": "ERC1967InvalidImplementation",
            "type": "error"
        },
        {
            "inputs": [],
            "name": "ERC1967NonPayable",
            "type": "error"
        },
        {
            "inputs": [],
            "name": "EmptyCID",
            "type": "error"
        },
        {
            "inputs": [],
            "name": "FailedCall",
            "type": "error"
        },
        {
            "inputs": [],
            "name": "FeeDeltaTooHigh",
            "type": "error"
        },
        {
            "inputs": [],
            "name": "FeeTooHigh",
            "type": "error"
        },
        {
            "inputs": [],
            "name": "InvalidAmount",
            "type": "error"
        },
        {
            "inputs": [],
            "name": "InvalidDueDate",
            "type": "error"
        },
        {
            "inputs": [],
            "name": "InvalidInitialization",
            "type": "error"
        },
        {
            "inputs": [],
            "name": "InvalidInterval",
            "type": "error"
        },
        {
            "inputs": [],
            "name": "InvalidMilestones",
            "type": "error"
        },
        {
            "inputs": [],
            "name": "InvoiceNotFound",
            "type": "error"
        },
        {
            "inputs": [],
            "name": "MilestoneAlreadyReleased",
            "type": "error"
        },
        {
            "inputs": [],
            "name": "MilestoneOutOfBounds",
            "type": "error"
        },
        {
            "inputs": [],
            "name": "NotCreator",
            "type": "error"
        },
        {
            "inputs": [],
            "name": "NotDisputed",
            "type": "error"
        },
        {
            "inputs": [],
            "name": "NotInitializing",
            "type": "error"
        },
        {
            "inputs": [],
            "name": "NotMilestoneInvoice",
            "type": "error"
        },
        {
            "inputs": [],
            "name": "NotParty",
            "type": "error"
        },
        {
            "inputs": [],
            "name": "NotStandardOrRecurring",
            "type": "error"
        },
        {
            "inputs": [
                {
                    "internalType": "address",
                    "name": "owner",
                    "type": "address"
                }
            ],
            "name": "OwnableInvalidOwner",
            "type": "error"
        },
        {
            "inputs": [
                {
                    "internalType": "address",
                    "name": "account",
                    "type": "address"
                }
            ],
            "name": "OwnableUnauthorizedAccount",
            "type": "error"
        },
        {
            "inputs": [],
            "name": "RecurringRequiresDueDate",
            "type": "error"
        },
        {
            "inputs": [
                {
                    "internalType": "address",
                    "name": "token",
                    "type": "address"
                }
            ],
            "name": "SafeERC20FailedOperation",
            "type": "error"
        },
        {
            "inputs": [],
            "name": "TokenNotWhitelisted",
            "type": "error"
        },
        {
            "inputs": [],
            "name": "UUPSUnauthorizedCallContext",
            "type": "error"
        },
        {
            "inputs": [
                {
                    "internalType": "bytes32",
                    "name": "slot",
                    "type": "bytes32"
                }
            ],
            "name": "UUPSUnsupportedProxiableUUID",
            "type": "error"
        },
        {
            "inputs": [],
            "name": "WrongClient",
            "type": "error"
        },
        {
            "inputs": [],
            "name": "ZeroAddress",
            "type": "error"
        },
        {
            "anonymous": false,
            "inputs": [
                {
                    "indexed": true,
                    "internalType": "address",
                    "name": "owner",
                    "type": "address"
                },
                {
                    "indexed": true,
                    "internalType": "address",
                    "name": "feeRecipient",
                    "type": "address"
                },
                {
                    "indexed": false,
                    "internalType": "uint256",
                    "name": "platformFeeBps",
                    "type": "uint256"
                }
            ],
            "name": "ContractInitialized",
            "type": "event"
        },
        {
            "anonymous": false,
            "inputs": [
                {
                    "indexed": true,
                    "internalType": "uint256",
                    "name": "id",
                    "type": "uint256"
                }
            ],
            "name": "DisputeResolved",
            "type": "event"
        },
        {
            "anonymous": false,
            "inputs": [
                {
                    "indexed": false,
                    "internalType": "address",
                    "name": "oldRecipient",
                    "type": "address"
                },
                {
                    "indexed": false,
                    "internalType": "address",
                    "name": "newRecipient",
                    "type": "address"
                }
            ],
            "name": "FeeRecipientUpdated",
            "type": "event"
        },
        {
            "anonymous": false,
            "inputs": [
                {
                    "indexed": false,
                    "internalType": "uint256",
                    "name": "oldBps",
                    "type": "uint256"
                },
                {
                    "indexed": false,
                    "internalType": "uint256",
                    "name": "newBps",
                    "type": "uint256"
                }
            ],
            "name": "FeeUpdated",
            "type": "event"
        },
        {
            "anonymous": false,
            "inputs": [
                {
                    "indexed": false,
                    "internalType": "uint64",
                    "name": "version",
                    "type": "uint64"
                }
            ],
            "name": "Initialized",
            "type": "event"
        },
        {
            "anonymous": false,
            "inputs": [
                {
                    "indexed": true,
                    "internalType": "uint256",
                    "name": "id",
                    "type": "uint256"
                },
                {
                    "indexed": true,
                    "internalType": "address",
                    "name": "by",
                    "type": "address"
                }
            ],
            "name": "InvoiceCancelled",
            "type": "event"
        },
        {
            "anonymous": false,
            "inputs": [
                {
                    "indexed": true,
                    "internalType": "uint256",
                    "name": "id",
                    "type": "uint256"
                },
                {
                    "indexed": true,
                    "internalType": "address",
                    "name": "creator",
                    "type": "address"
                },
                {
                    "indexed": true,
                    "internalType": "address",
                    "name": "client",
                    "type": "address"
                },
                {
                    "indexed": false,
                    "internalType": "string",
                    "name": "invoiceRef",
                    "type": "string"
                },
                {
                    "indexed": false,
                    "internalType": "string",
                    "name": "metadataCID",
                    "type": "string"
                },
                {
                    "indexed": false,
                    "internalType": "address",
                    "name": "token",
                    "type": "address"
                },
                {
                    "indexed": false,
                    "internalType": "uint256",
                    "name": "amount",
                    "type": "uint256"
                },
                {
                    "indexed": false,
                    "internalType": "uint256",
                    "name": "dueDate",
                    "type": "uint256"
                },
                {
                    "indexed": false,
                    "internalType": "enum Decimoon.InvoiceType",
                    "name": "invoiceType",
                    "type": "uint8"
                },
                {
                    "indexed": false,
                    "internalType": "enum Decimoon.Interval",
                    "name": "interval",
                    "type": "uint8"
                }
            ],
            "name": "InvoiceCreated",
            "type": "event"
        },
        {
            "anonymous": false,
            "inputs": [
                {
                    "indexed": true,
                    "internalType": "uint256",
                    "name": "id",
                    "type": "uint256"
                },
                {
                    "indexed": true,
                    "internalType": "address",
                    "name": "by",
                    "type": "address"
                },
                {
                    "indexed": false,
                    "internalType": "string",
                    "name": "reason",
                    "type": "string"
                }
            ],
            "name": "InvoiceDisputed",
            "type": "event"
        },
        {
            "anonymous": false,
            "inputs": [
                {
                    "indexed": true,
                    "internalType": "uint256",
                    "name": "id",
                    "type": "uint256"
                }
            ],
            "name": "InvoiceMarkedOverdue",
            "type": "event"
        },
        {
            "anonymous": false,
            "inputs": [
                {
                    "indexed": true,
                    "internalType": "uint256",
                    "name": "id",
                    "type": "uint256"
                },
                {
                    "indexed": true,
                    "internalType": "address",
                    "name": "payer",
                    "type": "address"
                },
                {
                    "indexed": false,
                    "internalType": "uint256",
                    "name": "amount",
                    "type": "uint256"
                },
                {
                    "indexed": false,
                    "internalType": "uint256",
                    "name": "fee",
                    "type": "uint256"
                },
                {
                    "indexed": false,
                    "internalType": "uint256",
                    "name": "lateFee",
                    "type": "uint256"
                },
                {
                    "indexed": false,
                    "internalType": "uint256",
                    "name": "creatorReceives",
                    "type": "uint256"
                },
                {
                    "indexed": false,
                    "internalType": "uint256",
                    "name": "timestamp",
                    "type": "uint256"
                }
            ],
            "name": "InvoicePaid",
            "type": "event"
        },
        {
            "anonymous": false,
            "inputs": [
                {
                    "indexed": true,
                    "internalType": "uint256",
                    "name": "id",
                    "type": "uint256"
                },
                {
                    "indexed": false,
                    "internalType": "string",
                    "name": "newCID",
                    "type": "string"
                }
            ],
            "name": "MetadataUpdated",
            "type": "event"
        },
        {
            "anonymous": false,
            "inputs": [
                {
                    "indexed": true,
                    "internalType": "uint256",
                    "name": "invoiceId",
                    "type": "uint256"
                },
                {
                    "indexed": true,
                    "internalType": "uint256",
                    "name": "milestoneIndex",
                    "type": "uint256"
                },
                {
                    "indexed": false,
                    "internalType": "uint256",
                    "name": "amount",
                    "type": "uint256"
                },
                {
                    "indexed": false,
                    "internalType": "uint256",
                    "name": "fee",
                    "type": "uint256"
                },
                {
                    "indexed": false,
                    "internalType": "uint256",
                    "name": "creatorReceives",
                    "type": "uint256"
                },
                {
                    "indexed": false,
                    "internalType": "uint256",
                    "name": "timestamp",
                    "type": "uint256"
                }
            ],
            "name": "MilestoneReleased",
            "type": "event"
        },
        {
            "anonymous": false,
            "inputs": [
                {
                    "indexed": true,
                    "internalType": "address",
                    "name": "previousOwner",
                    "type": "address"
                },
                {
                    "indexed": true,
                    "internalType": "address",
                    "name": "newOwner",
                    "type": "address"
                }
            ],
            "name": "OwnershipTransferStarted",
            "type": "event"
        },
        {
            "anonymous": false,
            "inputs": [
                {
                    "indexed": true,
                    "internalType": "address",
                    "name": "previousOwner",
                    "type": "address"
                },
                {
                    "indexed": true,
                    "internalType": "address",
                    "name": "newOwner",
                    "type": "address"
                }
            ],
            "name": "OwnershipTransferred",
            "type": "event"
        },
        {
            "anonymous": false,
            "inputs": [
                {
                    "indexed": true,
                    "internalType": "uint256",
                    "name": "id",
                    "type": "uint256"
                },
                {
                    "indexed": false,
                    "internalType": "uint256",
                    "name": "newDueDate",
                    "type": "uint256"
                },
                {
                    "indexed": false,
                    "internalType": "uint256",
                    "name": "totalCollected",
                    "type": "uint256"
                }
            ],
            "name": "RecurringRenewed",
            "type": "event"
        },
        {
            "anonymous": false,
            "inputs": [
                {
                    "indexed": true,
                    "internalType": "address",
                    "name": "token",
                    "type": "address"
                },
                {
                    "indexed": false,
                    "internalType": "bool",
                    "name": "status",
                    "type": "bool"
                }
            ],
            "name": "TokenWhitelisted",
            "type": "event"
        },
        {
            "anonymous": false,
            "inputs": [
                {
                    "indexed": true,
                    "internalType": "address",
                    "name": "implementation",
                    "type": "address"
                }
            ],
            "name": "Upgraded",
            "type": "event"
        },
        {
            "inputs": [],
            "name": "MAX_FEE_BPS",
            "outputs": [
                {
                    "internalType": "uint256",
                    "name": "",
                    "type": "uint256"
                }
            ],
            "stateMutability": "view",
            "type": "function"
        },
        {
            "inputs": [],
            "name": "MAX_FEE_DELTA_BPS",
            "outputs": [
                {
                    "internalType": "uint256",
                    "name": "",
                    "type": "uint256"
                }
            ],
            "stateMutability": "view",
            "type": "function"
        },
        {
            "inputs": [],
            "name": "MAX_LATE_BPS",
            "outputs": [
                {
                    "internalType": "uint256",
                    "name": "",
                    "type": "uint256"
                }
            ],
            "stateMutability": "view",
            "type": "function"
        },
        {
            "inputs": [],
            "name": "UPGRADE_INTERFACE_VERSION",
            "outputs": [
                {
                    "internalType": "string",
                    "name": "",
                    "type": "string"
                }
            ],
            "stateMutability": "view",
            "type": "function"
        },
        {
            "inputs": [],
            "name": "acceptOwnership",
            "outputs": [],
            "stateMutability": "nonpayable",
            "type": "function"
        },
        {
            "inputs": [
                {
                    "internalType": "uint256",
                    "name": "amount",
                    "type": "uint256"
                }
            ],
            "name": "calculateFee",
            "outputs": [
                {
                    "internalType": "uint256",
                    "name": "fee",
                    "type": "uint256"
                },
                {
                    "internalType": "uint256",
                    "name": "clientPays",
                    "type": "uint256"
                }
            ],
            "stateMutability": "view",
            "type": "function"
        },
        {
            "inputs": [
                {
                    "internalType": "uint256",
                    "name": "id",
                    "type": "uint256"
                }
            ],
            "name": "calculateTotalDue",
            "outputs": [
                {
                    "internalType": "uint256",
                    "name": "principal",
                    "type": "uint256"
                },
                {
                    "internalType": "uint256",
                    "name": "lateFee",
                    "type": "uint256"
                },
                {
                    "internalType": "uint256",
                    "name": "daysLate",
                    "type": "uint256"
                },
                {
                    "internalType": "uint256",
                    "name": "platformFee",
                    "type": "uint256"
                },
                {
                    "internalType": "uint256",
                    "name": "creatorReceives",
                    "type": "uint256"
                },
                {
                    "internalType": "uint256",
                    "name": "totalDue",
                    "type": "uint256"
                }
            ],
            "stateMutability": "view",
            "type": "function"
        },
        {
            "inputs": [
                {
                    "internalType": "uint256",
                    "name": "id",
                    "type": "uint256"
                }
            ],
            "name": "cancelInvoice",
            "outputs": [],
            "stateMutability": "nonpayable",
            "type": "function"
        },
        {
            "inputs": [
                {
                    "internalType": "address",
                    "name": "client",
                    "type": "address"
                },
                {
                    "internalType": "address",
                    "name": "token",
                    "type": "address"
                },
                {
                    "internalType": "uint256",
                    "name": "amount",
                    "type": "uint256"
                },
                {
                    "internalType": "uint256",
                    "name": "dueDate",
                    "type": "uint256"
                },
                {
                    "internalType": "uint256",
                    "name": "lateFeesBps",
                    "type": "uint256"
                },
                {
                    "internalType": "bool",
                    "name": "isRecurring",
                    "type": "bool"
                },
                {
                    "internalType": "enum Decimoon.Interval",
                    "name": "interval",
                    "type": "uint8"
                },
                {
                    "internalType": "string",
                    "name": "metadataCID",
                    "type": "string"
                }
            ],
            "name": "createInvoice",
            "outputs": [
                {
                    "internalType": "uint256",
                    "name": "id",
                    "type": "uint256"
                }
            ],
            "stateMutability": "nonpayable",
            "type": "function"
        },
        {
            "inputs": [
                {
                    "internalType": "address",
                    "name": "client",
                    "type": "address"
                },
                {
                    "internalType": "address",
                    "name": "token",
                    "type": "address"
                },
                {
                    "internalType": "uint256",
                    "name": "dueDate",
                    "type": "uint256"
                },
                {
                    "internalType": "uint256[]",
                    "name": "milestoneAmounts",
                    "type": "uint256[]"
                },
                {
                    "internalType": "string",
                    "name": "metadataCID",
                    "type": "string"
                }
            ],
            "name": "createMilestoneInvoice",
            "outputs": [
                {
                    "internalType": "uint256",
                    "name": "id",
                    "type": "uint256"
                }
            ],
            "stateMutability": "nonpayable",
            "type": "function"
        },
        {
            "inputs": [
                {
                    "internalType": "uint256",
                    "name": "id",
                    "type": "uint256"
                },
                {
                    "internalType": "string",
                    "name": "reason",
                    "type": "string"
                }
            ],
            "name": "disputeInvoice",
            "outputs": [],
            "stateMutability": "nonpayable",
            "type": "function"
        },
        {
            "inputs": [],
            "name": "feeRecipient",
            "outputs": [
                {
                    "internalType": "address",
                    "name": "",
                    "type": "address"
                }
            ],
            "stateMutability": "view",
            "type": "function"
        },
        {
            "inputs": [
                {
                    "internalType": "address",
                    "name": "client",
                    "type": "address"
                }
            ],
            "name": "getClientInvoices",
            "outputs": [
                {
                    "internalType": "uint256[]",
                    "name": "",
                    "type": "uint256[]"
                }
            ],
            "stateMutability": "view",
            "type": "function"
        },
        {
            "inputs": [
                {
                    "internalType": "uint256",
                    "name": "id",
                    "type": "uint256"
                }
            ],
            "name": "getClientTotal",
            "outputs": [
                {
                    "internalType": "uint256",
                    "name": "totalDue",
                    "type": "uint256"
                }
            ],
            "stateMutability": "view",
            "type": "function"
        },
        {
            "inputs": [
                {
                    "internalType": "address",
                    "name": "creator",
                    "type": "address"
                }
            ],
            "name": "getCreatorInvoices",
            "outputs": [
                {
                    "internalType": "uint256[]",
                    "name": "",
                    "type": "uint256[]"
                }
            ],
            "stateMutability": "view",
            "type": "function"
        },
        {
            "inputs": [
                {
                    "internalType": "uint256",
                    "name": "id",
                    "type": "uint256"
                }
            ],
            "name": "getInvoice",
            "outputs": [
                {
                    "components": [
                        {
                            "internalType": "uint256",
                            "name": "id",
                            "type": "uint256"
                        },
                        {
                            "internalType": "string",
                            "name": "invoiceRef",
                            "type": "string"
                        },
                        {
                            "internalType": "string",
                            "name": "metadataCID",
                            "type": "string"
                        },
                        {
                            "internalType": "address",
                            "name": "creator",
                            "type": "address"
                        },
                        {
                            "internalType": "address",
                            "name": "client",
                            "type": "address"
                        },
                        {
                            "internalType": "address",
                            "name": "token",
                            "type": "address"
                        },
                        {
                            "internalType": "uint256",
                            "name": "amount",
                            "type": "uint256"
                        },
                        {
                            "internalType": "uint256",
                            "name": "dueDate",
                            "type": "uint256"
                        },
                        {
                            "internalType": "enum Decimoon.Status",
                            "name": "status",
                            "type": "uint8"
                        },
                        {
                            "internalType": "enum Decimoon.InvoiceType",
                            "name": "invoiceType",
                            "type": "uint8"
                        },
                        {
                            "internalType": "uint256",
                            "name": "lateFeesBps",
                            "type": "uint256"
                        },
                        {
                            "internalType": "enum Decimoon.Interval",
                            "name": "interval",
                            "type": "uint8"
                        },
                        {
                            "internalType": "uint256",
                            "name": "nextDueDate",
                            "type": "uint256"
                        },
                        {
                            "internalType": "uint256",
                            "name": "totalCollected",
                            "type": "uint256"
                        },
                        {
                            "internalType": "uint256",
                            "name": "milestonesReleased",
                            "type": "uint256"
                        },
                        {
                            "internalType": "uint256",
                            "name": "createdAt",
                            "type": "uint256"
                        },
                        {
                            "internalType": "uint256",
                            "name": "paidAt",
                            "type": "uint256"
                        },
                        {
                            "internalType": "string",
                            "name": "disputeReason",
                            "type": "string"
                        }
                    ],
                    "internalType": "struct Decimoon.Invoice",
                    "name": "",
                    "type": "tuple"
                }
            ],
            "stateMutability": "view",
            "type": "function"
        },
        {
            "inputs": [
                {
                    "internalType": "address",
                    "name": "creator",
                    "type": "address"
                },
                {
                    "internalType": "enum Decimoon.Status",
                    "name": "status",
                    "type": "uint8"
                }
            ],
            "name": "getInvoicesByStatus",
            "outputs": [
                {
                    "internalType": "uint256[]",
                    "name": "",
                    "type": "uint256[]"
                }
            ],
            "stateMutability": "view",
            "type": "function"
        },
        {
            "inputs": [
                {
                    "internalType": "uint256",
                    "name": "invoiceId",
                    "type": "uint256"
                },
                {
                    "internalType": "uint256",
                    "name": "milestoneIndex",
                    "type": "uint256"
                }
            ],
            "name": "getMilestoneClientTotal",
            "outputs": [
                {
                    "internalType": "uint256",
                    "name": "totalDue",
                    "type": "uint256"
                }
            ],
            "stateMutability": "view",
            "type": "function"
        },
        {
            "inputs": [
                {
                    "internalType": "uint256",
                    "name": "id",
                    "type": "uint256"
                }
            ],
            "name": "getMilestones",
            "outputs": [
                {
                    "components": [
                        {
                            "internalType": "uint256",
                            "name": "amount",
                            "type": "uint256"
                        },
                        {
                            "internalType": "bool",
                            "name": "released",
                            "type": "bool"
                        },
                        {
                            "internalType": "uint256",
                            "name": "releasedAt",
                            "type": "uint256"
                        }
                    ],
                    "internalType": "struct Decimoon.Milestone[]",
                    "name": "",
                    "type": "tuple[]"
                }
            ],
            "stateMutability": "view",
            "type": "function"
        },
        {
            "inputs": [],
            "name": "implementation",
            "outputs": [
                {
                    "internalType": "address",
                    "name": "",
                    "type": "address"
                }
            ],
            "stateMutability": "view",
            "type": "function"
        },
        {
            "inputs": [
                {
                    "internalType": "address",
                    "name": "_initialOwner",
                    "type": "address"
                },
                {
                    "internalType": "address",
                    "name": "_feeRecipient",
                    "type": "address"
                },
                {
                    "internalType": "address[]",
                    "name": "_initialTokens",
                    "type": "address[]"
                }
            ],
            "name": "initialize",
            "outputs": [],
            "stateMutability": "nonpayable",
            "type": "function"
        },
        {
            "inputs": [
                {
                    "internalType": "uint256",
                    "name": "",
                    "type": "uint256"
                }
            ],
            "name": "invoices",
            "outputs": [
                {
                    "internalType": "uint256",
                    "name": "id",
                    "type": "uint256"
                },
                {
                    "internalType": "string",
                    "name": "invoiceRef",
                    "type": "string"
                },
                {
                    "internalType": "string",
                    "name": "metadataCID",
                    "type": "string"
                },
                {
                    "internalType": "address",
                    "name": "creator",
                    "type": "address"
                },
                {
                    "internalType": "address",
                    "name": "client",
                    "type": "address"
                },
                {
                    "internalType": "address",
                    "name": "token",
                    "type": "address"
                },
                {
                    "internalType": "uint256",
                    "name": "amount",
                    "type": "uint256"
                },
                {
                    "internalType": "uint256",
                    "name": "dueDate",
                    "type": "uint256"
                },
                {
                    "internalType": "enum Decimoon.Status",
                    "name": "status",
                    "type": "uint8"
                },
                {
                    "internalType": "enum Decimoon.InvoiceType",
                    "name": "invoiceType",
                    "type": "uint8"
                },
                {
                    "internalType": "uint256",
                    "name": "lateFeesBps",
                    "type": "uint256"
                },
                {
                    "internalType": "enum Decimoon.Interval",
                    "name": "interval",
                    "type": "uint8"
                },
                {
                    "internalType": "uint256",
                    "name": "nextDueDate",
                    "type": "uint256"
                },
                {
                    "internalType": "uint256",
                    "name": "totalCollected",
                    "type": "uint256"
                },
                {
                    "internalType": "uint256",
                    "name": "milestonesReleased",
                    "type": "uint256"
                },
                {
                    "internalType": "uint256",
                    "name": "createdAt",
                    "type": "uint256"
                },
                {
                    "internalType": "uint256",
                    "name": "paidAt",
                    "type": "uint256"
                },
                {
                    "internalType": "string",
                    "name": "disputeReason",
                    "type": "string"
                }
            ],
            "stateMutability": "view",
            "type": "function"
        },
        {
            "inputs": [
                {
                    "internalType": "uint256",
                    "name": "id",
                    "type": "uint256"
                }
            ],
            "name": "markOverdue",
            "outputs": [],
            "stateMutability": "nonpayable",
            "type": "function"
        },
        {
            "inputs": [],
            "name": "owner",
            "outputs": [
                {
                    "internalType": "address",
                    "name": "",
                    "type": "address"
                }
            ],
            "stateMutability": "view",
            "type": "function"
        },
        {
            "inputs": [
                {
                    "internalType": "uint256",
                    "name": "id",
                    "type": "uint256"
                }
            ],
            "name": "payInvoice",
            "outputs": [],
            "stateMutability": "nonpayable",
            "type": "function"
        },
        {
            "inputs": [],
            "name": "pendingOwner",
            "outputs": [
                {
                    "internalType": "address",
                    "name": "",
                    "type": "address"
                }
            ],
            "stateMutability": "view",
            "type": "function"
        },
        {
            "inputs": [],
            "name": "platformFeeBps",
            "outputs": [
                {
                    "internalType": "uint256",
                    "name": "",
                    "type": "uint256"
                }
            ],
            "stateMutability": "view",
            "type": "function"
        },
        {
            "inputs": [],
            "name": "proxiableUUID",
            "outputs": [
                {
                    "internalType": "bytes32",
                    "name": "",
                    "type": "bytes32"
                }
            ],
            "stateMutability": "view",
            "type": "function"
        },
        {
            "inputs": [
                {
                    "internalType": "uint256",
                    "name": "invoiceId",
                    "type": "uint256"
                },
                {
                    "internalType": "uint256",
                    "name": "milestoneIndex",
                    "type": "uint256"
                }
            ],
            "name": "releaseMilestone",
            "outputs": [],
            "stateMutability": "nonpayable",
            "type": "function"
        },
        {
            "inputs": [],
            "name": "renounceOwnership",
            "outputs": [],
            "stateMutability": "nonpayable",
            "type": "function"
        },
        {
            "inputs": [
                {
                    "internalType": "uint256",
                    "name": "id",
                    "type": "uint256"
                }
            ],
            "name": "resolveDispute",
            "outputs": [],
            "stateMutability": "nonpayable",
            "type": "function"
        },
        {
            "inputs": [
                {
                    "internalType": "uint256",
                    "name": "newBps",
                    "type": "uint256"
                }
            ],
            "name": "setFee",
            "outputs": [],
            "stateMutability": "nonpayable",
            "type": "function"
        },
        {
            "inputs": [
                {
                    "internalType": "address",
                    "name": "newRecipient",
                    "type": "address"
                }
            ],
            "name": "setFeeRecipient",
            "outputs": [],
            "stateMutability": "nonpayable",
            "type": "function"
        },
        {
            "inputs": [
                {
                    "internalType": "address",
                    "name": "token",
                    "type": "address"
                },
                {
                    "internalType": "bool",
                    "name": "status",
                    "type": "bool"
                }
            ],
            "name": "setTokenWhitelist",
            "outputs": [],
            "stateMutability": "nonpayable",
            "type": "function"
        },
        {
            "inputs": [
                {
                    "internalType": "address",
                    "name": "",
                    "type": "address"
                }
            ],
            "name": "tokenWhitelist",
            "outputs": [
                {
                    "internalType": "bool",
                    "name": "",
                    "type": "bool"
                }
            ],
            "stateMutability": "view",
            "type": "function"
        },
        {
            "inputs": [],
            "name": "totalInvoices",
            "outputs": [
                {
                    "internalType": "uint256",
                    "name": "",
                    "type": "uint256"
                }
            ],
            "stateMutability": "view",
            "type": "function"
        },
        {
            "inputs": [
                {
                    "internalType": "address",
                    "name": "newOwner",
                    "type": "address"
                }
            ],
            "name": "transferOwnership",
            "outputs": [],
            "stateMutability": "nonpayable",
            "type": "function"
        },
        {
            "inputs": [
                {
                    "internalType": "uint256",
                    "name": "id",
                    "type": "uint256"
                },
                {
                    "internalType": "string",
                    "name": "newCID",
                    "type": "string"
                }
            ],
            "name": "updateMetadata",
            "outputs": [],
            "stateMutability": "nonpayable",
            "type": "function"
        },
        {
            "inputs": [
                {
                    "internalType": "address",
                    "name": "newImplementation",
                    "type": "address"
                },
                {
                    "internalType": "bytes",
                    "name": "data",
                    "type": "bytes"
                }
            ],
            "name": "upgradeToAndCall",
            "outputs": [],
            "stateMutability": "payable",
            "type": "function"
        }
    ],
    "bytecode": "0x60a080604052346100ea57306080527ff0c57e16840df040f15088dc2f81fe391c3923bec73e23a9662efc9c229c6a005460ff8160401c166100d9576002600160401b03196001600160401b03821601610073575b604051613bf990816100f0823960805181818161284701526128ed0152f35b6001600160401b0319166001600160401b039081177ff0c57e16840df040f15088dc2f81fe391c3923bec73e23a9662efc9c229c6a005581527fc7f505b2f371ae2175ee4913f4499e1f2633a7b5936321eed1cdaeb6115181d290602090a13880610054565b63f92ee8a960e01b60005260046000fd5b600080fdfe61010080604052600436101561001457600080fd5b600090813560e01c9081631cb9b2aa146131d25750806322dcd13e146131b55780632bfe987b1461304d5780633a23cc0a14612d6257806342c549c014612c655780634690484014612c3c5780634e6d140514612a8c5780634f1ef2861461289c57806352d1902d1461283457806353c8388e1461266c5780635c60da1b146126365780635d7d538a146125f657806369fe0e2d14612551578063703155ba146124e5578063715018a614612464578063753d75631461242557806377a24f361461213357806379ba5097146120e55780638da5cb5b146120af57806393351bc014611e905780639607b3dc146116cd57806398f7dae614610f5c57806399a5d74714610f1f5780639fb67a1514610f03578063a737b63514610e1d578063ac60a6cd14610ab1578063ad3cb1cc14610a6a578063b434b3bd146109e8578063b5435201146109cb578063c2b7b868146108e8578063c9bcc97e14610845578063d55be8c614610828578063da9c273d14610741578063dbaf091014610483578063dca1010614610360578063e30c39781461032a578063e74b981b1461029b578063ec660a80146102595763f2fde38b146101cf57600080fd5b34610256576020366003190112610256576101e8613240565b6101f0613776565b600080516020613ba483398151915280546001600160a01b0319166001600160a01b03928316908117909155600080516020613b44833981519152549091167f38d16b8cac22d99fc7c124b9cd0de2d3fa1faef420bfe791d8c362d765e227008380a380f35b80fd5b503461025657602036600319011261025657600435808252600460205260408220541561028c57610289906136f8565b80f35b634d5c803960e11b8252600482fd5b5034610256576020366003190112610256576102b5613240565b6102bd613776565b6001600160a01b0316801561031b57600154604080516001600160a01b0383168152602081018490527faaebcf1bfa00580e41d966056b48521fa9f202645c86d4ddf28113e617c1b1d39190a16001600160a01b0319161760015580f35b63d92e233d60e01b8252600482fd5b5034610256578060031936011261025657600080516020613ba4833981519152546040516001600160a01b039091168152602090f35b5034610256576020366003190112610256576004359081815260046020526040812054156104745760c09181526004602052604081209060068201549181809160098101549081151580610467575b8061045a575b610402575b50506103ca61271091548561367b565b046103d5838561368e565b916103e0828461368e565b93604051958652602086015260408501526060840152608083015260a0820152f35b620151809294506104199193506007015442613652565b04908115610451575b61043882610433612710938761367b565b61367b565b0491838311610449575b38806103ba565b839250610442565b60019150610422565b50600781015442116103b5565b50600781015415156103af565b634d5c803960e11b8152600490fd5b50346102565761049236613529565b906002600354146106fc57600260035580835260046020526040832054156106ed5780835260046020526040832060088101805460ff8160081c1660038110156106d9576002036106ca5760ff1660058110156106b657600281146106a7576004146106985760048201546001600160a01b0316801515908161068d575b5061067e57828552600560205260408520918254928386101561066f57856105379161365f565b5091600183019360ff855416610660578354936127106105588a548761367b565b600386015460058701549290910497916001600160a01b0390811691610582918991163384613927565b878061063f575b5050600160ff19825416179055600242910155600c83016105ab85825461368e565b9055600d83018054906001820180921161062b57918160809694927fa1f428412c435fe6c35d2de0b669415b7d5e3d90e80e70a51d90086fec4c2f269896945514610613575b50506040519181835260208301526040820152426060820152a3600160035580f35b600160ff19825416179055600f4291015538806105f1565b634e487b7160e01b8a52601160045260248afd5b600154610659926001600160a01b03909116903390613927565b3887610589565b6340dabeef60e11b8852600488fd5b638d64d2cd60e01b8752600487fd5b6328c8011b60e11b8552600485fd5b905033141538610510565b6304ee891b60e11b8552600485fd5b6354e3762560e01b8652600486fd5b634e487b7160e01b86526021600452602486fd5b630fc3206160e11b8652600486fd5b634e487b7160e01b87526021600452602487fd5b634d5c803960e11b8352600483fd5b60405162461bcd60e51b815260206004820152601f60248201527f5265656e7472616e637947756172643a207265656e7472616e742063616c6c006044820152606490fd5b503461025657602036600319011261025657600435808252600460205260408220541561028c57808252600460205260408220600301546001600160a01b031633036108195780825260046020526008604083200160ff815416600581101561080557600181146107f6576002146107e757805460ff1916600217905533907f1893bd55c53ca5d28463267b3794ea27b1c3fc3b0cc5f86e0c5b613ad4156f088380a380f35b6354e3762560e01b8352600483fd5b630d70a0e360e41b8452600484fd5b634e487b7160e01b84526021600452602484fd5b6393687c0b60e01b8252600482fd5b503461025657806003193601126102565760206040516103e88152f35b50346102565760403660031901126102565761085f613240565b60243590811515908183036108e357610876613776565b6001600160a01b03169182156108d4577fef81a9943b96c8df4ef243401c9bf5159146166211356898b52d382086168d92916108ca60209285875260098452604087209060ff801983541691151516179055565b604051908152a280f35b63d92e233d60e01b8452600484fd5b600080fd5b503461025657602036600319011261025657600435610905613776565b808252600460205260408220541561028c578082526004602052604082206008810160ff81541660058110156109b7576004036109a857839160109160ff19815416905501610954815461332b565b601f8111610986575b50557f57cce005d496355471bb5269f1dea3d6c81b6ac14c1d74ba28aefb022357013b8280a280f35b6109a29082600052601f6020600020910160051c8101906135d5565b3861095d565b6310cec38560e21b8452600484fd5b634e487b7160e01b85526021600452602485fd5b503461025657806003193601126102565760206040516101f48152f35b5034610256576020366003190112610256576001600160a01b03610a0a613240565b168152600660205260408120604051918260208354918281520192825260208220915b818110610a5457610a5085610a44818703826133b2565b6040519182918261326c565b0390f35b8254845260209093019260019283019201610a2d565b5034610256578060031936011261025657610a506040805190610a8d81836133b2565b60058252640352e302e360dc1b6020830152519182916020835260208301906132c9565b5034610256576020366003190112610256576004356002600354146106fc576002600355808252600460205260408220541561028c578082526004602052604082209060088201805460ff8160081c1660038110156106b657600214610e0e5760ff1660058110156109b75760018114610dff5760028114610df057600481146106985760048401546001600160a01b03168015159081610de5575b5061067e5760078401908154908115159182610ddb575b5081610dd2575b50610d9d575b8154859160ff82166005811015610d895760031480610d7c575b610d27575b6006860191825496610bb185612710610baa8c548c61367b565b049961368e565b9560018060a01b036003830154169360ff60018060a01b036005850154169460081c166003811015610d13579060018a969594939214938c8a86600014610d0957610c169150610c0d600b87015460ff600a89015416906138c8565b975b3384613927565b8b80610ce8575b5050600c830193610c2f8a865461368e565b855515610ccc5791604093918580947fee141429e27784509e56b8dd3772430a8b7d335cc724928b4082a0f3c060250597600b8501555560ff198154169055600f429101555482519182526020820152a25b54936040519485526020850152604084015260608301524260808301527f4714935014af1382ce431f72a7e4b119021b1be42642b588a26383029be4846b60a03393a3600160035580f35b50805460ff1916600117905542600f9091015550610c81915050565b600154610d02926001600160a01b03909116903390613927565b388b610c1d565b610c169197610c0f565b634e487b7160e01b8c52602160045260248cfd5b915062015180610d38835442613652565b04918215610d73575b612710610d5b60068801549461043360098a01548761367b565b0492808411610d6b575b50610b90565b925038610d65565b60019250610d41565b5060098601541515610b8b565b634e487b7160e01b88526021600452602488fd5b815460ff19166003178255827fee6922729ba785f6d0cbf8bf67a2162acf26f9eda3635d053a49fbcabdf5e51f8680a2610b71565b90501538610b6b565b4211915038610b64565b905033141538610b4d565b6354e3762560e01b8552600485fd5b630d70a0e360e41b8552600485fd5b6317048eff60e21b8552600485fd5b503461025657602036600319011261025657600435808252600460205260408220541561028c5781610e93916020935260048352610e8e604082208290600981015480151580610ef6575b80610ee9575b610e9b575b50610e87600661271092015494548561367b565b049261368e565b61368e565b604051908152f35b915062015180610eaf600783015442613652565b048015610ee1575b610ecd612710916104336006850154958661367b565b049180831115610e73579150610e87610e73565b506001610eb7565b5060078201544211610e6e565b5060078201541515610e68565b5034610256578060031936011261025657602060405160c88152f35b503461025657602036600319011261025657604090610f50612710610f4860043593548461367b565b04809261368e565b82519182526020820152f35b50346102565761010036600319011261025657610f77613240565b90610f80613256565b9160a4359283151584036108e357600460c43510156116c95760e4356001600160401b0381116116c557610fb89036906004016134c9565b90929091906001600160a01b038216156116b6576001600160a01b03821685526009602052604085205460ff16156116a75760443515611698578215611689576064351580158061167d575b61166e578680611664575b6116555786908161164d575b5061163e576101f46084351161162f576002549361103885613584565b6002558615611628576001905b33875260086020526110666040882061105e8154613584565b80915561381a565b9488156116215760c435985b1561161b576064355b604051996110888b613365565b888b528760208c01523661109d908486613492565b60408c01523360608c01526001600160a01b0386811660808d0152871660a08c015260443560c08c015260643560e08c01526101008b018a90526110e5856101208d016135bd565b6084356101408c01526110fc906101608c016135c9565b6101808a0152876101a08a0152876101c08a0152426101e08a0152876102008a015260209760405161112e8a826133b2565b8181526102208b015287815260048952604081209980518b55602081015180516001600160401b03811161159957611176818e600161116f8183015461332b565b91016135ec565b8b8d601f83116001146115ad575081906111a693869261146d575b50508160011b916000199060031b1c19161790565b60018c01555b604081015180516001600160401b038111611599576111d4818e600261116f8183015461332b565b8b8d601f831160011461152b5750819061120393869261146d5750508160011b916000199060031b1c19161790565b60028c01555b606081015160038c0180546001600160a01b03199081166001600160a01b0393841617909155608083015160048e018054831691841691909117905560a08301516005808f0180549093169190931617905560c082015160068d015560e082015160078d015561010082015160088d01918110156108055761128b908261369b565b61012082015160038110156108055761ff0082549160081b169061ff00191617905561014081015160098c0155600a8b0161016082015160048110156108055790610220929160ff80198354169116179055610180810151600b8d01556101a0810151600c8d01556101c0810151600d8d01556101e0810151600e8d0155610200810151600f8d01550151998a516001600160401b03811161151757899a9b6113488261133f6010869e9c9d9e015461332b565b601086016135ec565b8c90601f8311600114611478579260106113a6847f5e4854096909575838e2ae6342be67175e7f3d83d3d22a27852e27c11d6922af9b9a9895889561141e9b986113f49a9261146d5750508160011b916000199060031b1c19161790565b9101555b33815260068d526113be89604083206136c3565b888d6001600160a01b038916611446575b5050506113e76040519a60e08c5260e08c01906132c9565b918a83038d8c0152613631565b6001600160a01b0390961660408801526044356060880152606435608088015260a0870190613311565b61142d60c0860160c43561331e565b6001600160a01b031693339381900390a4604051908152f35b6001600160a01b038916835260079052604090912061146591906136c3565b38888d6113cf565b015190503880611191565b6010840185528d85209190858f5b601f19861682106114fb5750506001846113f4979461141e9a97946010947f5e4854096909575838e2ae6342be67175e7f3d83d3d22a27852e27c11d6922af9e9d9b98601f198116106114e2575b505050811b019101556113aa565b015160001960f88460031b161c191690553880806114d4565b8383015185558f9c506001909401939283019290810190611486565b634e487b7160e01b83526041600452602483fd5b60020185528c852085939091908e5b601f198516861061157f57506001945083601f19811610611566575b505050811b0160028c0155611209565b015160001960f88460031b161c19169055388080611556565b82820151845594850194600190930192909101908e61153a565b634e487b7160e01b84526041600452602484fd5b60010185528c852085939091908e5b601f198516861061160157506001945083601f198116106115e8575b505050811b0160018c01556111ac565b015160001960f88460031b161c191690553880806115d8565b82820151845594850194600190930192909101908e6115bc565b8761107b565b8798611072565b8590611045565b63cd4e616760e01b8552600485fd5b63a588c4dd60e01b8552600485fd5b90503861101b565b6305fabb6160e41b8652600486fd5b5060c4351561100f565b63a1ff8dcd60e01b8652600486fd5b50426064351115611004565b63063ee91d60e41b8552600485fd5b63162908e360e11b8552600485fd5b6307c241ad60e51b8552600485fd5b63d92e233d60e01b8552600485fd5b8380fd5b8280fd5b50346102565760a0366003190112610256576116e7613240565b906116f0613256565b91606435926001600160401b0384116116c957366023850112156116c9576001600160401b038460040135116116c957366024856004013560051b860101116116c9576084356001600160401b0381116116c5576117529036906004016134c9565b90939092906001600160a01b03831615611e81576001600160a01b03831681526009602052604081205460ff1615611e7257856004013515611e63578315611e5457604435151580611e48575b611e395780815b87600401358110611deb5750600254956117bf87613584565b60025533835260086020526117db6040842061105e8154613584565b95604051936117e985613365565b8885528760208601526117fd368385613492565b604086015233606086015260018060a01b038616608086015260018060a01b03871660a08601528360c086015260443560e0860152806101008601526002610120860152806101408601528061016086015280610180860152806101a0860152806101c0860152426101e0860152806102008601526020996040516118828c826133b2565b82815261022087015289825260048b52604082209580518755602081015180516001600160401b038111611cfd576118ca816118c160018c015461332b565b60018c016135ec565b8d80601f8311600114611d7e575081906118f993879261146d5750508160011b916000199060031b1c19161790565b60018801555b604081015180516001600160401b038111611cfd5761192e8161192560028c015461332b565b60028c016135ec565b8d80601f8311600114611d115750819061195d93879261146d5750508160011b916000199060031b1c19161790565b60028801555b60608101516003880180546001600160a01b03199081166001600160a01b0393841617909155608083015160048a018054831691841691909117905560a08301516005808b0180549093169190931617905560c0820151600689015560e0820151600789015561010082015190811015610805576119e4906008890161369b565b6101208101519660038810156108055760009761ff0060088301549160081b169061ff001916176008820155610140820151600982015561016082015160048110156109b7576102209160109160ff8019600a84015416911617600a820155610180840151600b8201556101a0840151600c8201556101c0840151600d8201556101e0840151600e820155610200840151600f8201550191015180516001600160401b038111611cfd57611aa281611a9c855461332b565b856135ec565b8d80601f8311600114611c9757508190611ad193879261146d5750508160011b916000199060031b1c19161790565b90555b815b81600401358110611bdd57505090611b33929133815260068b52611afd8a604083206136c3565b898b6001600160a01b038916611bb6575b505050611b266040519860e08a5260e08a01906132c9565b918883038b8a0152613631565b6001600160a01b03909416604086015260608501526044356080850152600260a08501526004811015611ba25760c08401526001600160a01b031691339184917f5e4854096909575838e2ae6342be67175e7f3d83d3d22a27852e27c11d6922af9181900390a4604051908152f35b634e487b7160e01b81526021600452602490fd5b6001600160a01b0389168352600790526040909120611bd591906136c3565b38898b611b0e565b8a835260058c5260408320611bfa828460040135602486016136b3565b359060405191611c0983613397565b82528d82018581526040830191868352805490600160401b821015611c835790611c389160018201815561365f565b939093611c6f5791611c6560029260019695945185555115158685019060ff801983541691151516179055565b5191015501611ad6565b634e487b7160e01b87526004879052602487fd5b634e487b7160e01b88526041600452602488fd5b9192601f1984168588528388209388905b828210611ce5575050908460019594939210611ccc575b505050811b019055611ad4565b015160001960f88460031b161c19169055388080611cbf565b80600186978294978701518155019601940190611ca8565b634e487b7160e01b85526041600452602485fd5b929060028b0187528387209187945b601f1985168610611d6557506001945083601f19811610611d4c575b505050811b016002880155611963565b015160001960f88460031b161c19169055388080611d3c565b8282015184559485019460019093019291820191611d20565b929060018b0187528387209187945b601f1985168610611dd257506001945083601f19811610611db9575b505050811b0160018801556118ff565b015160001960f88460031b161c19169055388080611da9565b8282015184559485019460019093019291820191611d8d565b90611dfe82896004013560248b016136b3565b3515611e2a57611e23600191611e1c848b6004013560248d016136b3565b359061368e565b91016117a6565b63162908e360e11b8352600483fd5b63a1ff8dcd60e01b8152600490fd5b5042604435111561179f565b63063ee91d60e41b8152600490fd5b63d6befc1960e01b8152600490fd5b6307c241ad60e51b8152600490fd5b63d92e233d60e01b8152600490fd5b503461025657611e9f366134f6565b919081845260046020526040842054156120a05781845260046020526040842060038101546001600160a01b03163314159081612088575b50612079578184526004602052604084206008810160ff81541660058110156106d9576001811461206a576002811461205b5760041461204c57805460ff191660041790556010016001600160401b038411611cfd57611f4184611f3b835461332b565b836135ec565b8385601f8211600114611fbf5791611f95827ffb6c9791c15996c332dc1393414a00d034442812d39e5ef79b6be51961efc9289593611fae958a91611fb4575b508160011b916000199060031b1c19161790565b90555b6040519182916020835233966020840191613631565b0390a380f35b905084013538611f81565b82875260208720915085601f198116885b8181106120315750917ffb6c9791c15996c332dc1393414a00d034442812d39e5ef79b6be51961efc928959391611fae959310612017575b5050600186811b019055611f98565b830135600019600389901b60f8161c191690553880612008565b86840135855560019094019360209384019389935001611fd0565b6304ee891b60e11b8652600486fd5b6354e3762560e01b8752600487fd5b630d70a0e360e41b8752600487fd5b63c8ee2d1d60e01b8452600484fd5b600401546001600160a01b0316331415905038611ed7565b634d5c803960e11b8452600484fd5b5034610256578060031936011261025657600080516020613b44833981519152546040516001600160a01b039091168152602090f35b5034610256578060031936011261025657600080516020613ba483398151915254336001600160a01b039091160361212057610289336137ac565b63118cdaa760e01b815233600452602490fd5b50346102565760603660031901126102565761214d613240565b612155613256565b90604435906001600160401b0382116116c557366023830112156116c55781600401356121818161353f565b9261218f60405194856133b2565b8184526024602085019260051b8201019036821161242157602401915b8183106123fd57505050600080516020613b84833981519152549360ff8560401c1615946001600160401b038116801590816123f5575b60011490816123eb575b1590816123e2575b506123d35767ffffffffffffffff198116600117600080516020613b8483398151915255856123a6575b506001600160a01b03821693841561031b576001600160a01b031691821561031b5761225a9061224d6139be565b6122556139be565b6137ac565b6122626139be565b6001600381905580546001600160a01b0319168317815560c890915560025560005b8251811015612319576001906001600160a01b036122a282866135a9565b51166122af575b01612284565b818060a01b036122bf82866135a9565b5116600052600960205260406000208260ff19825416179055818060a01b036122e882866135a9565b51167fef81a9943b96c8df4ef243401c9bf5159146166211356898b52d382086168d926020604051858152a26122a9565b8482857f3aea040f0a97794427640abb0b0b8a2ab94ef5b41307efa3d0ecc48d1e1ac1f9602060405160c88152a361234d57005b68ff000000000000000019600080516020613b848339815191525416600080516020613b84833981519152557fc7f505b2f371ae2175ee4913f4499e1f2633a7b5936321eed1cdaeb6115181d2602060405160018152a1005b68ffffffffffffffffff19166801000000000000000117600080516020613b84833981519152553861221f565b63f92ee8a960e01b8252600482fd5b905015386121f5565b303b1591506121ed565b8791506121e3565b82356001600160a01b038116810361241d578152602092830192016121ac565b8780fd5b8680fd5b50346102565760203660031901126102565760209060ff906040906001600160a01b03612450613240565b168152600984522054166040519015158152f35b503461025657806003193601126102565761247d613776565b600080516020613ba483398151915280546001600160a01b0319908116909155600080516020613b448339815191528054918216905581906001600160a01b03167f8be0079c531659141344cd1fd0a4f28419497f9722a3daafe3b4186f6b6457e08280a380f35b5034610256576124f436613529565b9080835260046020526040832054156106ed5782526005602052604082208054821015612542579161271061253b612531610e939460209661365f565b505492548361367b565b049061368e565b638d64d2cd60e01b8352600483fd5b50346102565760203660031901126102565760043561256e613776565b6103e881116125e7578154808211156125d65760c861258d8284613652565b116125c75760407f528d9479e9f9889a87a3c30c7f7ba537e5e59c4c85a37733b16e57c62df61302918151908152836020820152a1815580f35b632c0c4b4560e11b8352600483fd5b60c86125e28383613652565b61258d565b63cd4e616760e01b8252600482fd5b503461025657806003193601126102565760025460001981019190821161262257602082604051908152f35b634e487b7160e01b81526011600452602490fd5b5034610256578060031936011261025657600080516020613b64833981519152546040516001600160a01b039091168152602090f35b50346102565761267b366134f6565b92919081835260046020526040832054156106ed57818352600460205260408320600301546001600160a01b031633036128255781835260046020526040832060ff60088201541660058110156109b75760018114610dff5760021461281657841561280757600201936001600160401b0381116115995761270781612701875461332b565b876135ec565b8394601f821160011461278257612757828087987f459157ba24c7ab9878b165ef465fa6ae2ab42bcd8445f576be378768b0c4730997989161277757508160011b916000199060031b1c19161790565b90555b612771604051928392602084526020840191613631565b0390a280f35b905085013538611f81565b8085526020852095601f198316865b8181106127ef575090837f459157ba24c7ab9878b165ef465fa6ae2ab42bcd8445f576be378768b0c4730996979892106127d5575b5050600182811b01905561275a565b840135600019600385901b60f8161c1916905538806127c6565b85830135895560019098019760209283019201612791565b63063ee91d60e41b8452600484fd5b6354e3762560e01b8452600484fd5b6393687c0b60e01b8352600483fd5b50346102565780600319360112610256577f00000000000000000000000000000000000000000000000000000000000000006001600160a01b0316300361288d576020604051600080516020613b648339815191528152f35b63703e46dd60e11b8152600490fd5b506040366003190112610256576128b1613240565b906024356001600160401b038111612a885736602382011215612a88576128e2903690602481600401359101613492565b916001600160a01b037f000000000000000000000000000000000000000000000000000000000000000016308114908115612a65575b50612a5657612925613776565b6040516352d1902d60e01b8152926001600160a01b0382169190602085600481865afa80958596612a1e575b5061296a57634c9c8ce360e01b84526004839052602484fd5b909184600080516020613b648339815191528103612a0c5750823b156129fa57600080516020613b6483398151915280546001600160a01b031916821790557fbc7cd75a20ee27fd9adebab32041f755214dbc6bffa90cc0225b39da2e5c2d3b8480a28051156129e1576129dd91613ab1565b5080f35b5050346129eb5780f35b63b398979f60e01b8152600490fd5b634c9c8ce360e01b8452600452602483fd5b632a87526960e21b8552600452602484fd5b9095506020813d602011612a4e575b81612a3a602093836133b2565b81010312612a4a57519438612951565b8480fd5b3d9150612a2d565b63703e46dd60e11b8252600482fd5b600080516020613b64833981519152546001600160a01b03161415905038612918565b5080fd5b50346102565760203660031901126102565760048035825260205260409020805490612aba600182016133d3565b60a052612ac9600282016133d3565b60e052600160a01b6001900360038201541691600160a01b60019003600483015416600160a01b60019003600584015416600684015460078501546008860154600987015490600a88015460ff1692600b89015494600c8a015496600d8b015498600e8c01549a600f8d01549c601001612b42906133d3565b60805260405160c05260c0515260c051602001610240905260c0516102400160a05190612b6e916132c9565b60c051810360c0516040015260e05190612b87916132c9565b9c60c0516060015260c0516080015260c05160a0015260c05160c0015260c05160e0015260c0516101000160ff821690612bc0916132ee565b60c051610120019060081c60ff1690612bd891613311565b60c051610140015260c05161016001612bf09161331e565b60c051610180015260c0516101a0015260c0516101c0015260c0516101e0015260c051610200015260c051810360c051610220015260c0519060805190612c36916132c9565b0360c051f35b50346102565780600319360112610256576001546040516001600160a01b039091168152602090f35b503461025657602036600319011261025657600435808252600460205260408220541561028c5781526005602052604081208054612ca28161353f565b90612cb060405192836133b2565b80825260208201809385526020852085915b838310612d2657868587604051928392602084019060208552518091526040840192915b818110612cf4575050500390f35b919350916020606060019260408751805183528481015115158584015201516040820152019401910191849392612ce6565b60036020600192604051612d3981613397565b8554815260ff858701541615158382015260028601546040820152815201920192019190612cc2565b5034610256576020366003190112610256576004356060610220604051612d8881613365565b84815282602082015282604082015284838201528460808201528460a08201528460c08201528460e08201528461010082015284610120820152846101408201528461016082015284610180820152846101a0820152846101c0820152846101e0820152846102008201520152808252600460205260408220541561028c5781526004602052604081209060405190612e2082613365565b82548252612e30600184016133d3565b6020830152612e41600284016133d3565b604083015260038301546001600160a01b03908116606084015260048401548116608084015260058085015490911660a0840152600684015460c0840152600784015460e084015260088401549160ff831691821015611ba25750610a5093612ec060ff612f1d9460109461010088015260081c1661012086016135bd565b6009810154610140850152612ee060ff600a8301541661016086016135c9565b600b810154610180850152600c8101546101a0850152600d8101546101c0850152600e8101546101e0850152600f810154610200850152016133d3565b6102208201526040519182916020835280516020840152610220612f6b612f55602084015161024060408801526102608701906132c9565b6040840151868203601f190160608801526132c9565b9160018060a01b03606082015116608086015260018060a01b0360808201511660a086015260018060a01b0360a08201511660c086015260c081015160e086015260e0810151610100860152612fcb6101008201516101208701906132ee565b612fdf610120820151610140870190613311565b610140810151610160860152612fff61016082015161018087019061331e565b6101808101516101a08601526101a08101516101c08601526101c08101516101e08601526101e0810151610200860152610200810151828601520151601f19848303016102408501526132c9565b503461025657604036600319011261025657613067613240565b60243590600582101590816116c5576001600160a01b03168352600660205260408320805484939092845b84811061316057506130a38561353f565b946130b160405196876133b2565b8086526130c0601f199161353f565b0136602087013785805b8581106130df5760405180610a50898261326c565b6130e98186613556565b90549060031b1c825260046020528260ff6008604085200154169061314c57600581101561314c57908460019214613122575b016130ca565b61312c8187613556565b90549060031b1c61314661313f8b613584565b9a8a6135a9565b5261311c565b634e487b7160e01b83526021600452602483fd5b61316a8185613556565b90549060031b1c875260046020528160ff600860408a2001541690610d89576005811015610d895783146131a1575b600101613092565b946131ad600191613584565b959050613199565b503461025657806003193601126102565760209054604051908152f35b8234610256576020366003190112610256576001600160a01b036131f4613240565b1681526007602052604081209081548084526020840192825260208220915b81811061322a57610a5085610a44818703826133b2565b8254845260209093019260019283019201613213565b600435906001600160a01b03821682036108e357565b602435906001600160a01b03821682036108e357565b602060408183019282815284518094520192019060005b8181106132905750505090565b8251845260209384019390920191600101613283565b60005b8381106132b95750506000910152565b81810151838201526020016132a9565b906020916132e2815180928185528580860191016132a6565b601f01601f1916010190565b9060058210156132fb5752565b634e487b7160e01b600052602160045260246000fd5b9060038210156132fb5752565b9060048210156132fb5752565b90600182811c9216801561335b575b602083101461334557565b634e487b7160e01b600052602260045260246000fd5b91607f169161333a565b61024081019081106001600160401b0382111761338157604052565b634e487b7160e01b600052604160045260246000fd5b606081019081106001600160401b0382111761338157604052565b90601f801991011681019081106001600160401b0382111761338157604052565b90604051918260008254926133e78461332b565b8084529360018116908115613455575060011461340e575b5061340c925003836133b2565b565b90506000929192526020600020906000915b81831061343957505090602061340c92820101386133ff565b6020919350806001915483858901015201910190918492613420565b90506020925061340c94915060ff191682840152151560051b820101386133ff565b6001600160401b03811161338157601f01601f191660200190565b92919261349e82613477565b916134ac60405193846133b2565b8294818452818301116108e3578281602093846000960137010152565b9181601f840112156108e3578235916001600160401b0383116108e357602083818601950101116108e357565b9060406003198301126108e35760043591602435906001600160401b0382116108e357613525916004016134c9565b9091565b60409060031901126108e3576004359060243590565b6001600160401b0381116133815760051b60200190565b805482101561356e5760005260206000200190600090565b634e487b7160e01b600052603260045260246000fd5b60001981146135935760010190565b634e487b7160e01b600052601160045260246000fd5b805182101561356e5760209160051b010190565b60038210156132fb5752565b60048210156132fb5752565b8181106135e0575050565b600081556001016135d5565b9190601f81116135fb57505050565b61340c926000526020600020906020601f840160051c83019310613627575b601f0160051c01906135d5565b909150819061361a565b908060209392818452848401376000828201840152601f01601f1916010190565b9190820391821161359357565b805482101561356e576000526003602060002091020190600090565b8181029291811591840414171561359357565b9190820180921161359357565b9060058110156132fb5760ff80198354169116179055565b919081101561356e5760051b0190565b8054600160401b811015613381576136e091600182018155613556565b819291549060031b91821b91600019901b1916179055565b8060005260046020526040600020600881019060ff82541660058110156132fb5761377157600701548015908115613766575b5061376257805460ff191660031790557fee6922729ba785f6d0cbf8bf67a2162acf26f9eda3635d053a49fbcabdf5e51f600080a2565b5050565b90504211153861372b565b505050565b600080516020613b44833981519152546001600160a01b0316330361379757565b63118cdaa760e01b6000523360045260246000fd5b600080516020613ba483398151915280546001600160a01b0319908116909155600080516020613b4483398151915280549182166001600160a01b0393841690811790915591167f8be0079c531659141344cd1fd0a4f28419497f9722a3daafe3b4186f6b6457e0600080a3565b613823816139ec565b90600a81101561389457506138676022604051809361030360f41b602083015261385681518092602086860191016132a6565b81010301601f1981018352826133b2565b6138916024604051809363494e562d60e01b602083015261385681518092602086860191016132a6565b90565b60641115613867576138c360216040518093600360fc1b602083015261385681518092602086860191016132a6565b613867565b9060048110156132fb576001811461391657600090600281146139045760039150146138f45750600090565b62278d0081018091116135935790565b50621275008201809211612622575090565b5062093a8081018091116135935790565b6040516323b872dd60e01b60009081526001600160a01b039384166004529290931660245260449390935260209060648180865af19060016000511482161561399c575b60405260006060521561397b5750565b635274afe760e01b60009081526001600160a01b0391909116600452602490fd5b9060018115166139b457823b15153d1516169061396b565b503d6000823e3d90fd5b60ff600080516020613b848339815191525460401c16156139db57565b631afcd79f60e31b60005260046000fd5b8015613a9157600081805b613a7d5750613a0581613477565b90613a1360405192836133b2565b808252601f19613a2282613477565b013660208401375b808315613a76578015613593576000190192600a8106603001918260301161359357835185101561356e57600a9260f81b6001600160f81b03191660001a908401601f01530491613a2a565b5050905090565b90613a89600a91613584565b9104806139f7565b50604051613aa06040826133b2565b60018152600360fc1b602082015290565b9060008091602081519101845af48080613b30575b15613ae75750506040513d81523d6000602083013e60203d82010160405290565b15613b0d57639996b31560e01b60009081526001600160a01b0391909116600452602490fd5b3d15613b1f576040513d6000823e3d90fd5b63d6bda27560e01b60005260046000fd5b503d151580613ac65750813b1515613ac656fe9016d09d72d40fdae2fd8ceac6b6234c7706214fd39c1cd1e609a0528c199300360894a13ba1a3210667c828492db98dca3e2076cc3735a920a3ca505d382bbcf0c57e16840df040f15088dc2f81fe391c3923bec73e23a9662efc9c229c6a00237e158222e3e6968b72b9db0d8043aacf074ad9f650f0d1606b4d82ee432c00a2646970667358221220bb41b136a33ee63fc207349c14e146c775a1d5303e97105237b8775f6cb7404a64736f6c634300081c0033",
    "linkReferences": {},
    "deployedLinkReferences": {}
}